{
    "_format": "hh-sol-artifact-1",
    "contractName": "Reactos",
    "sourceName": "contracts/Reactos.sol",
    "abi": [
        {
            "inputs": [
                {
                    "internalType": "string",
                    "name": "_name",
                    "type": "string"
                },
                {
                    "internalType": "string",
                    "name": "_symbol",
                    "type": "string"
                }
            ],
            "stateMutability": "nonpayable",
            "type": "constructor"
        },
        {
            "anonymous": false,
            "inputs": [
                {
                    "indexed": true,
                    "internalType": "address",
                    "name": "owner",
                    "type": "address"
                },
                {
                    "indexed": true,
                    "internalType": "address",
                    "name": "approved",
                    "type": "address"
                },
                {
                    "indexed": true,
                    "internalType": "uint256",
                    "name": "tokenId",
                    "type": "uint256"
                }
            ],
            "name": "Approval",
            "type": "event"
        },
        {
            "anonymous": false,
            "inputs": [
                {
                    "indexed": true,
                    "internalType": "address",
                    "name": "owner",
                    "type": "address"
                },
                {
                    "indexed": true,
                    "internalType": "address",
                    "name": "operator",
                    "type": "address"
                },
                {
                    "indexed": false,
                    "internalType": "bool",
                    "name": "approved",
                    "type": "bool"
                }
            ],
            "name": "ApprovalForAll",
            "type": "event"
        },
        {
            "anonymous": false,
            "inputs": [
                {
                    "indexed": true,
                    "internalType": "address",
                    "name": "previousOwner",
                    "type": "address"
                },
                {
                    "indexed": true,
                    "internalType": "address",
                    "name": "newOwner",
                    "type": "address"
                }
            ],
            "name": "OwnershipTransferred",
            "type": "event"
        },
        {
            "anonymous": false,
            "inputs": [
                {
                    "indexed": true,
                    "internalType": "address",
                    "name": "from",
                    "type": "address"
                },
                {
                    "indexed": true,
                    "internalType": "address",
                    "name": "to",
                    "type": "address"
                },
                {
                    "indexed": true,
                    "internalType": "uint256",
                    "name": "tokenId",
                    "type": "uint256"
                }
            ],
            "name": "Transfer",
            "type": "event"
        },
        {
            "inputs": [
                {
                    "internalType": "address",
                    "name": "to",
                    "type": "address"
                },
                {
                    "internalType": "uint256",
                    "name": "tokenId",
                    "type": "uint256"
                }
            ],
            "name": "approve",
            "outputs": [],
            "stateMutability": "nonpayable",
            "type": "function"
        },
        {
            "inputs": [
                {
                    "internalType": "address",
                    "name": "owner",
                    "type": "address"
                }
            ],
            "name": "balanceOf",
            "outputs": [
                {
                    "internalType": "uint256",
                    "name": "",
                    "type": "uint256"
                }
            ],
            "stateMutability": "view",
            "type": "function"
        },
        {
            "inputs": [
                {
                    "internalType": "uint256",
                    "name": "tokenId",
                    "type": "uint256"
                }
            ],
            "name": "getApproved",
            "outputs": [
                {
                    "internalType": "address",
                    "name": "",
                    "type": "address"
                }
            ],
            "stateMutability": "view",
            "type": "function"
        },
        {
            "inputs": [
                {
                    "internalType": "address",
                    "name": "owner",
                    "type": "address"
                },
                {
                    "internalType": "address",
                    "name": "operator",
                    "type": "address"
                }
            ],
            "name": "isApprovedForAll",
            "outputs": [
                {
                    "internalType": "bool",
                    "name": "",
                    "type": "bool"
                }
            ],
            "stateMutability": "view",
            "type": "function"
        },
        {
            "inputs": [
                {
                    "internalType": "string",
                    "name": "tokenURI",
                    "type": "string"
                }
            ],
            "name": "mint",
            "outputs": [
                {
                    "internalType": "uint256",
                    "name": "",
                    "type": "uint256"
                }
            ],
            "stateMutability": "nonpayable",
            "type": "function"
        },
        {
            "inputs": [],
            "name": "name",
            "outputs": [
                {
                    "internalType": "string",
                    "name": "",
                    "type": "string"
                }
            ],
            "stateMutability": "view",
            "type": "function"
        },
        {
            "inputs": [],
            "name": "owner",
            "outputs": [
                {
                    "internalType": "address",
                    "name": "",
                    "type": "address"
                }
            ],
            "stateMutability": "view",
            "type": "function"
        },
        {
            "inputs": [
                {
                    "internalType": "uint256",
                    "name": "tokenId",
                    "type": "uint256"
                }
            ],
            "name": "ownerOf",
            "outputs": [
                {
                    "internalType": "address",
                    "name": "",
                    "type": "address"
                }
            ],
            "stateMutability": "view",
            "type": "function"
        },
        {
            "inputs": [],
            "name": "renounceOwnership",
            "outputs": [],
            "stateMutability": "nonpayable",
            "type": "function"
        },
        {
            "inputs": [
                {
                    "internalType": "address",
                    "name": "from",
                    "type": "address"
                },
                {
                    "internalType": "address",
                    "name": "to",
                    "type": "address"
                },
                {
                    "internalType": "uint256",
                    "name": "tokenId",
                    "type": "uint256"
                }
            ],
            "name": "safeTransferFrom",
            "outputs": [],
            "stateMutability": "nonpayable",
            "type": "function"
        },
        {
            "inputs": [
                {
                    "internalType": "address",
                    "name": "from",
                    "type": "address"
                },
                {
                    "internalType": "address",
                    "name": "to",
                    "type": "address"
                },
                {
                    "internalType": "uint256",
                    "name": "tokenId",
                    "type": "uint256"
                },
                {
                    "internalType": "bytes",
                    "name": "data",
                    "type": "bytes"
                }
            ],
            "name": "safeTransferFrom",
            "outputs": [],
            "stateMutability": "nonpayable",
            "type": "function"
        },
        {
            "inputs": [
                {
                    "internalType": "address",
                    "name": "operator",
                    "type": "address"
                },
                {
                    "internalType": "bool",
                    "name": "approved",
                    "type": "bool"
                }
            ],
            "name": "setApprovalForAll",
            "outputs": [],
            "stateMutability": "nonpayable",
            "type": "function"
        },
        {
            "inputs": [
                {
                    "internalType": "bytes4",
                    "name": "interfaceId",
                    "type": "bytes4"
                }
            ],
            "name": "supportsInterface",
            "outputs": [
                {
                    "internalType": "bool",
                    "name": "",
                    "type": "bool"
                }
            ],
            "stateMutability": "view",
            "type": "function"
        },
        {
            "inputs": [],
            "name": "symbol",
            "outputs": [
                {
                    "internalType": "string",
                    "name": "",
                    "type": "string"
                }
            ],
            "stateMutability": "view",
            "type": "function"
        },
        {
            "inputs": [
                {
                    "internalType": "uint256",
                    "name": "tokenId",
                    "type": "uint256"
                }
            ],
            "name": "tokenURI",
            "outputs": [
                {
                    "internalType": "string",
                    "name": "",
                    "type": "string"
                }
            ],
            "stateMutability": "view",
            "type": "function"
        },
        {
            "inputs": [
                {
                    "internalType": "address",
                    "name": "from",
                    "type": "address"
                },
                {
                    "internalType": "address",
                    "name": "to",
                    "type": "address"
                },
                {
                    "internalType": "uint256",
                    "name": "tokenId",
                    "type": "uint256"
                }
            ],
            "name": "transferFrom",
            "outputs": [],
            "stateMutability": "nonpayable",
            "type": "function"
        },
        {
            "inputs": [
                {
                    "internalType": "address",
                    "name": "newOwner",
                    "type": "address"
                }
            ],
            "name": "transferOwnership",
            "outputs": [],
            "stateMutability": "nonpayable",
            "type": "function"
        }
    ],
    "bytecode": "0x60806040523480156200001157600080fd5b5060405162003601380380620036018339818101604052810190620000379190620002e8565b818181600090816200004a9190620005b8565b5080600190816200005c9190620005b8565b5050506200007f620000736200008760201b60201c565b6200008f60201b60201c565b50506200069f565b600033905090565b6000600760009054906101000a900473ffffffffffffffffffffffffffffffffffffffff16905081600760006101000a81548173ffffffffffffffffffffffffffffffffffffffff021916908373ffffffffffffffffffffffffffffffffffffffff1602179055508173ffffffffffffffffffffffffffffffffffffffff168173ffffffffffffffffffffffffffffffffffffffff167f8be0079c531659141344cd1fd0a4f28419497f9722a3daafe3b4186f6b6457e060405160405180910390a35050565b6000604051905090565b600080fd5b600080fd5b600080fd5b600080fd5b6000601f19601f8301169050919050565b7f4e487b7100000000000000000000000000000000000000000000000000000000600052604160045260246000fd5b620001be8262000173565b810181811067ffffffffffffffff82111715620001e057620001df62000184565b5b80604052505050565b6000620001f562000155565b9050620002038282620001b3565b919050565b600067ffffffffffffffff82111562000226576200022562000184565b5b620002318262000173565b9050602081019050919050565b60005b838110156200025e57808201518184015260208101905062000241565b60008484015250505050565b6000620002816200027b8462000208565b620001e9565b905082815260208101848484011115620002a0576200029f6200016e565b5b620002ad8482856200023e565b509392505050565b600082601f830112620002cd57620002cc62000169565b5b8151620002df8482602086016200026a565b91505092915050565b600080604083850312156200030257620003016200015f565b5b600083015167ffffffffffffffff81111562000323576200032262000164565b5b6200033185828601620002b5565b925050602083015167ffffffffffffffff81111562000355576200035462000164565b5b6200036385828601620002b5565b9150509250929050565b600081519050919050565b7f4e487b7100000000000000000000000000000000000000000000000000000000600052602260045260246000fd5b60006002820490506001821680620003c057607f821691505b602082108103620003d657620003d562000378565b5b50919050565b60008190508160005260206000209050919050565b60006020601f8301049050919050565b600082821b905092915050565b600060088302620004407fffffffffffffffffffffffffffffffffffffffffffffffffffffffffffffffff8262000401565b6200044c868362000401565b95508019841693508086168417925050509392505050565b6000819050919050565b6000819050919050565b600062000499620004936200048d8462000464565b6200046e565b62000464565b9050919050565b6000819050919050565b620004b58362000478565b620004cd620004c482620004a0565b8484546200040e565b825550505050565b600090565b620004e4620004d5565b620004f1818484620004aa565b505050565b5b8181101562000519576200050d600082620004da565b600181019050620004f7565b5050565b601f82111562000568576200053281620003dc565b6200053d84620003f1565b810160208510156200054d578190505b620005656200055c85620003f1565b830182620004f6565b50505b505050565b600082821c905092915050565b60006200058d600019846008026200056d565b1980831691505092915050565b6000620005a883836200057a565b9150826002028217905092915050565b620005c3826200036d565b67ffffffffffffffff811115620005df57620005de62000184565b5b620005eb8254620003a7565b620005f88282856200051d565b600060209050601f8311600181146200063057600084156200061b578287015190505b6200062785826200059a565b86555062000697565b601f1984166200064086620003dc565b60005b828110156200066a5784890151825560018201915060208501945060208101905062000643565b868310156200068a578489015162000686601f8916826200057a565b8355505b6001600288020188555050505b505050505050565b612f5280620006af6000396000f3fe608060405234801561001057600080fd5b506004361061010b5760003560e01c8063715018a6116100a2578063b88d4fde11610071578063b88d4fde146102a4578063c87b56dd146102c0578063d85d3d27146102f0578063e985e9c514610320578063f2fde38b146103505761010b565b8063715018a6146102425780638da5cb5b1461024c57806395d89b411461026a578063a22cb465146102885761010b565b806323b872dd116100de57806323b872dd146101aa57806342842e0e146101c65780636352211e146101e257806370a08231146102125761010b565b806301ffc9a71461011057806306fdde0314610140578063081812fc1461015e578063095ea7b31461018e575b600080fd5b61012a60048036038101906101259190611cbf565b61036c565b6040516101379190611d07565b60405180910390f35b61014861044e565b6040516101559190611db2565b60405180910390f35b61017860048036038101906101739190611e0a565b6104e0565b6040516101859190611e78565b60405180910390f35b6101a860048036038101906101a39190611ebf565b610526565b005b6101c460048036038101906101bf9190611eff565b61063d565b005b6101e060048036038101906101db9190611eff565b61069d565b005b6101fc60048036038101906101f79190611e0a565b6106bd565b6040516102099190611e78565b60405180910390f35b61022c60048036038101906102279190611f52565b610743565b6040516102399190611f8e565b60405180910390f35b61024a6107fa565b005b61025461080e565b6040516102619190611e78565b60405180910390f35b610272610838565b60405161027f9190611db2565b60405180910390f35b6102a2600480360381019061029d9190611fd5565b6108ca565b005b6102be60048036038101906102b9919061214a565b6108e0565b005b6102da60048036038101906102d59190611e0a565b610942565b6040516102e79190611db2565b60405180910390f35b61030a6004803603810190610305919061226e565b610a54565b6040516103179190611f8e565b60405180910390f35b61033a600480360381019061033591906122b7565b610a8a565b6040516103479190611d07565b60405180910390f35b61036a60048036038101906103659190611f52565b610b1e565b005b60007f80ac58cd000000000000000000000000000000000000000000000000000000007bffffffffffffffffffffffffffffffffffffffffffffffffffffffff1916827bffffffffffffffffffffffffffffffffffffffffffffffffffffffff1916148061043757507f5b5e139f000000000000000000000000000000000000000000000000000000007bffffffffffffffffffffffffffffffffffffffffffffffffffffffff1916827bffffffffffffffffffffffffffffffffffffffffffffffffffffffff1916145b80610447575061044682610ba1565b5b9050919050565b60606000805461045d90612326565b80601f016020809104026020016040519081016040528092919081815260200182805461048990612326565b80156104d65780601f106104ab576101008083540402835291602001916104d6565b820191906000526020600020905b8154815290600101906020018083116104b957829003601f168201915b5050505050905090565b60006104eb82610c0b565b6004600083815260200190815260200160002060009054906101000a900473ffffffffffffffffffffffffffffffffffffffff169050919050565b6000610531826106bd565b90508073ffffffffffffffffffffffffffffffffffffffff168373ffffffffffffffffffffffffffffffffffffffff16036105a1576040517f08c379a0000000000000000000000000000000000000000000000000000000008152600401610598906123c9565b60405180910390fd5b8073ffffffffffffffffffffffffffffffffffffffff166105c0610c56565b73ffffffffffffffffffffffffffffffffffffffff1614806105ef57506105ee816105e9610c56565b610a8a565b5b61062e576040517f08c379a00000000000000000000000000000000000000000000000000000000081526004016106259061245b565b60405180910390fd5b6106388383610c5e565b505050565b61064e610648610c56565b82610d17565b61068d576040517f08c379a0000000000000000000000000000000000000000000000000000000008152600401610684906124ed565b60405180910390fd5b610698838383610dac565b505050565b6106b8838383604051806020016040528060008152506108e0565b505050565b6000806106c9836110a5565b9050600073ffffffffffffffffffffffffffffffffffffffff168173ffffffffffffffffffffffffffffffffffffffff160361073a576040517f08c379a000000000000000000000000000000000000000000000000000000000815260040161073190612559565b60405180910390fd5b80915050919050565b60008073ffffffffffffffffffffffffffffffffffffffff168273ffffffffffffffffffffffffffffffffffffffff16036107b3576040517f08c379a00000000000000000000000000000000000000000000000000000000081526004016107aa906125eb565b60405180910390fd5b600360008373ffffffffffffffffffffffffffffffffffffffff1673ffffffffffffffffffffffffffffffffffffffff168152602001908152602001600020549050919050565b6108026110e2565b61080c6000611160565b565b6000600760009054906101000a900473ffffffffffffffffffffffffffffffffffffffff16905090565b60606001805461084790612326565b80601f016020809104026020016040519081016040528092919081815260200182805461087390612326565b80156108c05780601f10610895576101008083540402835291602001916108c0565b820191906000526020600020905b8154815290600101906020018083116108a357829003601f168201915b5050505050905090565b6108dc6108d5610c56565b8383611226565b5050565b6108f16108eb610c56565b83610d17565b610930576040517f08c379a0000000000000000000000000000000000000000000000000000000008152600401610927906124ed565b60405180910390fd5b61093c84848484611392565b50505050565b606061094d82610c0b565b600060066000848152602001908152602001600020805461096d90612326565b80601f016020809104026020016040519081016040528092919081815260200182805461099990612326565b80156109e65780601f106109bb576101008083540402835291602001916109e6565b820191906000526020600020905b8154815290600101906020018083116109c957829003601f168201915b5050505050905060006109f76113ee565b90506000815103610a0c578192505050610a4f565b600082511115610a41578082604051602001610a29929190612647565b60405160208183030381529060405292505050610a4f565b610a4a84611405565b925050505b919050565b600080610a61600861146d565b9050610a6d338261147b565b610a778184611698565b610a816008611705565b80915050919050565b6000600560008473ffffffffffffffffffffffffffffffffffffffff1673ffffffffffffffffffffffffffffffffffffffff16815260200190815260200160002060008373ffffffffffffffffffffffffffffffffffffffff1673ffffffffffffffffffffffffffffffffffffffff16815260200190815260200160002060009054906101000a900460ff16905092915050565b610b266110e2565b600073ffffffffffffffffffffffffffffffffffffffff168173ffffffffffffffffffffffffffffffffffffffff1603610b95576040517f08c379a0000000000000000000000000000000000000000000000000000000008152600401610b8c906126dd565b60405180910390fd5b610b9e81611160565b50565b60007f01ffc9a7000000000000000000000000000000000000000000000000000000007bffffffffffffffffffffffffffffffffffffffffffffffffffffffff1916827bffffffffffffffffffffffffffffffffffffffffffffffffffffffff1916149050919050565b610c148161171b565b610c53576040517f08c379a0000000000000000000000000000000000000000000000000000000008152600401610c4a90612559565b60405180910390fd5b50565b600033905090565b816004600083815260200190815260200160002060006101000a81548173ffffffffffffffffffffffffffffffffffffffff021916908373ffffffffffffffffffffffffffffffffffffffff160217905550808273ffffffffffffffffffffffffffffffffffffffff16610cd1836106bd565b73ffffffffffffffffffffffffffffffffffffffff167f8c5be1e5ebec7d5bd14f71427d1e84f3dd0314c0f7b2291e5b200ac8c7c3b92560405160405180910390a45050565b600080610d23836106bd565b90508073ffffffffffffffffffffffffffffffffffffffff168473ffffffffffffffffffffffffffffffffffffffff161480610d655750610d648185610a8a565b5b80610da357508373ffffffffffffffffffffffffffffffffffffffff16610d8b846104e0565b73ffffffffffffffffffffffffffffffffffffffff16145b91505092915050565b8273ffffffffffffffffffffffffffffffffffffffff16610dcc826106bd565b73ffffffffffffffffffffffffffffffffffffffff1614610e22576040517f08c379a0000000000000000000000000000000000000000000000000000000008152600401610e199061276f565b60405180910390fd5b600073ffffffffffffffffffffffffffffffffffffffff168273ffffffffffffffffffffffffffffffffffffffff1603610e91576040517f08c379a0000000000000000000000000000000000000000000000000000000008152600401610e8890612801565b60405180910390fd5b610e9e838383600161175c565b8273ffffffffffffffffffffffffffffffffffffffff16610ebe826106bd565b73ffffffffffffffffffffffffffffffffffffffff1614610f14576040517f08c379a0000000000000000000000000000000000000000000000000000000008152600401610f0b9061276f565b60405180910390fd5b6004600082815260200190815260200160002060006101000a81549073ffffffffffffffffffffffffffffffffffffffff02191690556001600360008573ffffffffffffffffffffffffffffffffffffffff1673ffffffffffffffffffffffffffffffffffffffff168152602001908152602001600020600082825403925050819055506001600360008473ffffffffffffffffffffffffffffffffffffffff1673ffffffffffffffffffffffffffffffffffffffff16815260200190815260200160002060008282540192505081905550816002600083815260200190815260200160002060006101000a81548173ffffffffffffffffffffffffffffffffffffffff021916908373ffffffffffffffffffffffffffffffffffffffff160217905550808273ffffffffffffffffffffffffffffffffffffffff168473ffffffffffffffffffffffffffffffffffffffff167fddf252ad1be2c89b69c2b068fc378daa952ba7f163c4a11628f55a4df523b3ef60405160405180910390a46110a08383836001611882565b505050565b60006002600083815260200190815260200160002060009054906101000a900473ffffffffffffffffffffffffffffffffffffffff169050919050565b6110ea610c56565b73ffffffffffffffffffffffffffffffffffffffff1661110861080e565b73ffffffffffffffffffffffffffffffffffffffff161461115e576040517f08c379a00000000000000000000000000000000000000000000000000000000081526004016111559061286d565b60405180910390fd5b565b6000600760009054906101000a900473ffffffffffffffffffffffffffffffffffffffff16905081600760006101000a81548173ffffffffffffffffffffffffffffffffffffffff021916908373ffffffffffffffffffffffffffffffffffffffff1602179055508173ffffffffffffffffffffffffffffffffffffffff168173ffffffffffffffffffffffffffffffffffffffff167f8be0079c531659141344cd1fd0a4f28419497f9722a3daafe3b4186f6b6457e060405160405180910390a35050565b8173ffffffffffffffffffffffffffffffffffffffff168373ffffffffffffffffffffffffffffffffffffffff1603611294576040517f08c379a000000000000000000000000000000000000000000000000000000000815260040161128b906128d9565b60405180910390fd5b80600560008573ffffffffffffffffffffffffffffffffffffffff1673ffffffffffffffffffffffffffffffffffffffff16815260200190815260200160002060008473ffffffffffffffffffffffffffffffffffffffff1673ffffffffffffffffffffffffffffffffffffffff16815260200190815260200160002060006101000a81548160ff0219169083151502179055508173ffffffffffffffffffffffffffffffffffffffff168373ffffffffffffffffffffffffffffffffffffffff167f17307eab39ab6107e8899845ad3d59bd9653f200f220920489ca2b5937696c31836040516113859190611d07565b60405180910390a3505050565b61139d848484610dac565b6113a984848484611888565b6113e8576040517f08c379a00000000000000000000000000000000000000000000000000000000081526004016113df9061296b565b60405180910390fd5b50505050565b606060405180602001604052806000815250905090565b606061141082610c0b565b600061141a6113ee565b9050600081511161143a5760405180602001604052806000815250611465565b8061144484611a0f565b604051602001611455929190612647565b6040516020818303038152906040525b915050919050565b600081600001549050919050565b600073ffffffffffffffffffffffffffffffffffffffff168273ffffffffffffffffffffffffffffffffffffffff16036114ea576040517f08c379a00000000000000000000000000000000000000000000000000000000081526004016114e1906129d7565b60405180910390fd5b6114f38161171b565b15611533576040517f08c379a000000000000000000000000000000000000000000000000000000000815260040161152a90612a43565b60405180910390fd5b61154160008383600161175c565b61154a8161171b565b1561158a576040517f08c379a000000000000000000000000000000000000000000000000000000000815260040161158190612a43565b60405180910390fd5b6001600360008473ffffffffffffffffffffffffffffffffffffffff1673ffffffffffffffffffffffffffffffffffffffff16815260200190815260200160002060008282540192505081905550816002600083815260200190815260200160002060006101000a81548173ffffffffffffffffffffffffffffffffffffffff021916908373ffffffffffffffffffffffffffffffffffffffff160217905550808273ffffffffffffffffffffffffffffffffffffffff16600073ffffffffffffffffffffffffffffffffffffffff167fddf252ad1be2c89b69c2b068fc378daa952ba7f163c4a11628f55a4df523b3ef60405160405180910390a4611694600083836001611882565b5050565b6116a18261171b565b6116e0576040517f08c379a00000000000000000000000000000000000000000000000000000000081526004016116d790612ad5565b60405180910390fd5b806006600084815260200190815260200160002090816117009190612ca1565b505050565b6001816000016000828254019250508190555050565b60008073ffffffffffffffffffffffffffffffffffffffff1661173d836110a5565b73ffffffffffffffffffffffffffffffffffffffff1614159050919050565b600181111561187c57600073ffffffffffffffffffffffffffffffffffffffff168473ffffffffffffffffffffffffffffffffffffffff16146117f05780600360008673ffffffffffffffffffffffffffffffffffffffff1673ffffffffffffffffffffffffffffffffffffffff16815260200190815260200160002060008282546117e89190612da2565b925050819055505b600073ffffffffffffffffffffffffffffffffffffffff168373ffffffffffffffffffffffffffffffffffffffff161461187b5780600360008573ffffffffffffffffffffffffffffffffffffffff1673ffffffffffffffffffffffffffffffffffffffff16815260200190815260200160002060008282546118739190612dd6565b925050819055505b5b50505050565b50505050565b60006118a98473ffffffffffffffffffffffffffffffffffffffff16611add565b15611a02578373ffffffffffffffffffffffffffffffffffffffff1663150b7a026118d2610c56565b8786866040518563ffffffff1660e01b81526004016118f49493929190612e5f565b6020604051808303816000875af192505050801561193057506040513d601f19601f8201168201806040525081019061192d9190612ec0565b60015b6119b2573d8060008114611960576040519150601f19603f3d011682016040523d82523d6000602084013e611965565b606091505b5060008151036119aa576040517f08c379a00000000000000000000000000000000000000000000000000000000081526004016119a19061296b565b60405180910390fd5b805181602001fd5b63150b7a0260e01b7bffffffffffffffffffffffffffffffffffffffffffffffffffffffff1916817bffffffffffffffffffffffffffffffffffffffffffffffffffffffff191614915050611a07565b600190505b949350505050565b606060006001611a1e84611b00565b01905060008167ffffffffffffffff811115611a3d57611a3c61201f565b5b6040519080825280601f01601f191660200182016040528015611a6f5781602001600182028036833780820191505090505b509050600082602001820190505b600115611ad2578080600190039150507f3031323334353637383961626364656600000000000000000000000000000000600a86061a8153600a8581611ac657611ac5612eed565b5b04945060008503611a7d575b819350505050919050565b6000808273ffffffffffffffffffffffffffffffffffffffff163b119050919050565b600080600090507a184f03e93ff9f4daa797ed6e38ed64bf6a1f0100000000000000008310611b5e577a184f03e93ff9f4daa797ed6e38ed64bf6a1f0100000000000000008381611b5457611b53612eed565b5b0492506040810190505b6d04ee2d6d415b85acef81000000008310611b9b576d04ee2d6d415b85acef81000000008381611b9157611b90612eed565b5b0492506020810190505b662386f26fc100008310611bca57662386f26fc100008381611bc057611bbf612eed565b5b0492506010810190505b6305f5e1008310611bf3576305f5e1008381611be957611be8612eed565b5b0492506008810190505b6127108310611c18576127108381611c0e57611c0d612eed565b5b0492506004810190505b60648310611c3b5760648381611c3157611c30612eed565b5b0492506002810190505b600a8310611c4a576001810190505b80915050919050565b6000604051905090565b600080fd5b600080fd5b60007fffffffff0000000000000000000000000000000000000000000000000000000082169050919050565b611c9c81611c67565b8114611ca757600080fd5b50565b600081359050611cb981611c93565b92915050565b600060208284031215611cd557611cd4611c5d565b5b6000611ce384828501611caa565b91505092915050565b60008115159050919050565b611d0181611cec565b82525050565b6000602082019050611d1c6000830184611cf8565b92915050565b600081519050919050565b600082825260208201905092915050565b60005b83811015611d5c578082015181840152602081019050611d41565b60008484015250505050565b6000601f19601f8301169050919050565b6000611d8482611d22565b611d8e8185611d2d565b9350611d9e818560208601611d3e565b611da781611d68565b840191505092915050565b60006020820190508181036000830152611dcc8184611d79565b905092915050565b6000819050919050565b611de781611dd4565b8114611df257600080fd5b50565b600081359050611e0481611dde565b92915050565b600060208284031215611e2057611e1f611c5d565b5b6000611e2e84828501611df5565b91505092915050565b600073ffffffffffffffffffffffffffffffffffffffff82169050919050565b6000611e6282611e37565b9050919050565b611e7281611e57565b82525050565b6000602082019050611e8d6000830184611e69565b92915050565b611e9c81611e57565b8114611ea757600080fd5b50565b600081359050611eb981611e93565b92915050565b60008060408385031215611ed657611ed5611c5d565b5b6000611ee485828601611eaa565b9250506020611ef585828601611df5565b9150509250929050565b600080600060608486031215611f1857611f17611c5d565b5b6000611f2686828701611eaa565b9350506020611f3786828701611eaa565b9250506040611f4886828701611df5565b9150509250925092565b600060208284031215611f6857611f67611c5d565b5b6000611f7684828501611eaa565b91505092915050565b611f8881611dd4565b82525050565b6000602082019050611fa36000830184611f7f565b92915050565b611fb281611cec565b8114611fbd57600080fd5b50565b600081359050611fcf81611fa9565b92915050565b60008060408385031215611fec57611feb611c5d565b5b6000611ffa85828601611eaa565b925050602061200b85828601611fc0565b9150509250929050565b600080fd5b600080fd5b7f4e487b7100000000000000000000000000000000000000000000000000000000600052604160045260246000fd5b61205782611d68565b810181811067ffffffffffffffff821117156120765761207561201f565b5b80604052505050565b6000612089611c53565b9050612095828261204e565b919050565b600067ffffffffffffffff8211156120b5576120b461201f565b5b6120be82611d68565b9050602081019050919050565b82818337600083830152505050565b60006120ed6120e88461209a565b61207f565b9050828152602081018484840111156121095761210861201a565b5b6121148482856120cb565b509392505050565b600082601f83011261213157612130612015565b5b81356121418482602086016120da565b91505092915050565b6000806000806080858703121561216457612163611c5d565b5b600061217287828801611eaa565b945050602061218387828801611eaa565b935050604061219487828801611df5565b925050606085013567ffffffffffffffff8111156121b5576121b4611c62565b5b6121c18782880161211c565b91505092959194509250565b600067ffffffffffffffff8211156121e8576121e761201f565b5b6121f182611d68565b9050602081019050919050565b600061221161220c846121cd565b61207f565b90508281526020810184848401111561222d5761222c61201a565b5b6122388482856120cb565b509392505050565b600082601f83011261225557612254612015565b5b81356122658482602086016121fe565b91505092915050565b60006020828403121561228457612283611c5d565b5b600082013567ffffffffffffffff8111156122a2576122a1611c62565b5b6122ae84828501612240565b91505092915050565b600080604083850312156122ce576122cd611c5d565b5b60006122dc85828601611eaa565b92505060206122ed85828601611eaa565b9150509250929050565b7f4e487b7100000000000000000000000000000000000000000000000000000000600052602260045260246000fd5b6000600282049050600182168061233e57607f821691505b602082108103612351576123506122f7565b5b50919050565b7f4552433732313a20617070726f76616c20746f2063757272656e74206f776e6560008201527f7200000000000000000000000000000000000000000000000000000000000000602082015250565b60006123b3602183611d2d565b91506123be82612357565b604082019050919050565b600060208201905081810360008301526123e2816123a6565b9050919050565b7f4552433732313a20617070726f76652063616c6c6572206973206e6f7420746f60008201527f6b656e206f776e6572206f7220617070726f76656420666f7220616c6c000000602082015250565b6000612445603d83611d2d565b9150612450826123e9565b604082019050919050565b6000602082019050818103600083015261247481612438565b9050919050565b7f4552433732313a2063616c6c6572206973206e6f7420746f6b656e206f776e6560008201527f72206f7220617070726f76656400000000000000000000000000000000000000602082015250565b60006124d7602d83611d2d565b91506124e28261247b565b604082019050919050565b60006020820190508181036000830152612506816124ca565b9050919050565b7f4552433732313a20696e76616c696420746f6b656e2049440000000000000000600082015250565b6000612543601883611d2d565b915061254e8261250d565b602082019050919050565b6000602082019050818103600083015261257281612536565b9050919050565b7f4552433732313a2061646472657373207a65726f206973206e6f74206120766160008201527f6c6964206f776e65720000000000000000000000000000000000000000000000602082015250565b60006125d5602983611d2d565b91506125e082612579565b604082019050919050565b60006020820190508181036000830152612604816125c8565b9050919050565b600081905092915050565b600061262182611d22565b61262b818561260b565b935061263b818560208601611d3e565b80840191505092915050565b60006126538285612616565b915061265f8284612616565b91508190509392505050565b7f4f776e61626c653a206e6577206f776e657220697320746865207a65726f206160008201527f6464726573730000000000000000000000000000000000000000000000000000602082015250565b60006126c7602683611d2d565b91506126d28261266b565b604082019050919050565b600060208201905081810360008301526126f6816126ba565b9050919050565b7f4552433732313a207472616e736665722066726f6d20696e636f72726563742060008201527f6f776e6572000000000000000000000000000000000000000000000000000000602082015250565b6000612759602583611d2d565b9150612764826126fd565b604082019050919050565b600060208201905081810360008301526127888161274c565b9050919050565b7f4552433732313a207472616e7366657220746f20746865207a65726f2061646460008201527f7265737300000000000000000000000000000000000000000000000000000000602082015250565b60006127eb602483611d2d565b91506127f68261278f565b604082019050919050565b6000602082019050818103600083015261281a816127de565b9050919050565b7f4f776e61626c653a2063616c6c6572206973206e6f7420746865206f776e6572600082015250565b6000612857602083611d2d565b915061286282612821565b602082019050919050565b600060208201905081810360008301526128868161284a565b9050919050565b7f4552433732313a20617070726f766520746f2063616c6c657200000000000000600082015250565b60006128c3601983611d2d565b91506128ce8261288d565b602082019050919050565b600060208201905081810360008301526128f2816128b6565b9050919050565b7f4552433732313a207472616e7366657220746f206e6f6e20455243373231526560008201527f63656976657220696d706c656d656e7465720000000000000000000000000000602082015250565b6000612955603283611d2d565b9150612960826128f9565b604082019050919050565b6000602082019050818103600083015261298481612948565b9050919050565b7f4552433732313a206d696e7420746f20746865207a65726f2061646472657373600082015250565b60006129c1602083611d2d565b91506129cc8261298b565b602082019050919050565b600060208201905081810360008301526129f0816129b4565b9050919050565b7f4552433732313a20746f6b656e20616c7265616479206d696e74656400000000600082015250565b6000612a2d601c83611d2d565b9150612a38826129f7565b602082019050919050565b60006020820190508181036000830152612a5c81612a20565b9050919050565b7f45524337323155524953746f726167653a2055524920736574206f66206e6f6e60008201527f6578697374656e7420746f6b656e000000000000000000000000000000000000602082015250565b6000612abf602e83611d2d565b9150612aca82612a63565b604082019050919050565b60006020820190508181036000830152612aee81612ab2565b9050919050565b60008190508160005260206000209050919050565b60006020601f8301049050919050565b600082821b905092915050565b600060088302612b577fffffffffffffffffffffffffffffffffffffffffffffffffffffffffffffffff82612b1a565b612b618683612b1a565b95508019841693508086168417925050509392505050565b6000819050919050565b6000612b9e612b99612b9484611dd4565b612b79565b611dd4565b9050919050565b6000819050919050565b612bb883612b83565b612bcc612bc482612ba5565b848454612b27565b825550505050565b600090565b612be1612bd4565b612bec818484612baf565b505050565b5b81811015612c1057612c05600082612bd9565b600181019050612bf2565b5050565b601f821115612c5557612c2681612af5565b612c2f84612b0a565b81016020851015612c3e578190505b612c52612c4a85612b0a565b830182612bf1565b50505b505050565b600082821c905092915050565b6000612c7860001984600802612c5a565b1980831691505092915050565b6000612c918383612c67565b9150826002028217905092915050565b612caa82611d22565b67ffffffffffffffff811115612cc357612cc261201f565b5b612ccd8254612326565b612cd8828285612c14565b600060209050601f831160018114612d0b5760008415612cf9578287015190505b612d038582612c85565b865550612d6b565b601f198416612d1986612af5565b60005b82811015612d4157848901518255600182019150602085019450602081019050612d1c565b86831015612d5e5784890151612d5a601f891682612c67565b8355505b6001600288020188555050505b505050505050565b7f4e487b7100000000000000000000000000000000000000000000000000000000600052601160045260246000fd5b6000612dad82611dd4565b9150612db883611dd4565b9250828203905081811115612dd057612dcf612d73565b5b92915050565b6000612de182611dd4565b9150612dec83611dd4565b9250828201905080821115612e0457612e03612d73565b5b92915050565b600081519050919050565b600082825260208201905092915050565b6000612e3182612e0a565b612e3b8185612e15565b9350612e4b818560208601611d3e565b612e5481611d68565b840191505092915050565b6000608082019050612e746000830187611e69565b612e816020830186611e69565b612e8e6040830185611f7f565b8181036060830152612ea08184612e26565b905095945050505050565b600081519050612eba81611c93565b92915050565b600060208284031215612ed657612ed5611c5d565b5b6000612ee484828501612eab565b91505092915050565b7f4e487b7100000000000000000000000000000000000000000000000000000000600052601260045260246000fdfea2646970667358221220ddc78549dd26959237ef89975866d0d816116c944c9cc8a44db4f089a3eb16e464736f6c63430008110033",
    "linkReferences": {},
    "deployedLinkReferences": {}
}